{
  "transactions": [
    {
      "hash": "0xddac7cfb127f3a4df46fbb96d221d8c43f2f0b14df6e7bcfb780c80b8b1956e3",
      "transactionType": "CALL",
      "contractName": null,
      "contractAddress": "0x326C977E6efc84E512bB9C30f76E30c160eD06FB",
      "function": "transferAndCall(address,uint256,bytes)",
      "arguments": [
        "0x7a1BaC17Ccc5b313516C5E16fb24f7659aA5ebed",
        "3000000000000000000",
        "0x0000000000000000000000000000000000000000000000000000000000001c5c"
      ],
      "transaction": {
        "type": "0x02",
        "from": "0x6e22a78e8be91f94b673e4bfd0b1f2a620c99ed9",
        "to": "0x326c977e6efc84e512bb9c30f76e30c160ed06fb",
        "gas": "0x13fd4",
        "value": "0x0",
        "data": "0x4000aea00000000000000000000000007a1bac17ccc5b313516c5e16fb24f7659aa5ebed00000000000000000000000000000000000000000000000029a2241af62c0000000000000000000000000000000000000000000000000000000000000000006000000000000000000000000000000000000000000000000000000000000000200000000000000000000000000000000000000000000000000000000000001c5c",
        "nonce": "0x65",
        "accessList": []
      },
      "additionalContracts": [],
      "isFixedGasLimit": false
    }
  ],
  "receipts": [
    {
      "transactionHash": "0xddac7cfb127f3a4df46fbb96d221d8c43f2f0b14df6e7bcfb780c80b8b1956e3",
      "transactionIndex": "0x2",
      "blockHash": "0x60de1ef9e4a814781814bd9f9a865a3f7c8130cb09059bac7a1812a062f3a73f",
      "blockNumber": "0x2c124f8",
      "from": "0x6e22a78e8be91f94B673e4bfD0b1F2a620c99ED9",
      "to": "0x326C977E6efc84E512bB9C30f76E30c160eD06FB",
      "cumulativeGasUsed": "0x2eb64",
      "gasUsed": "0xe78e",
      "contractAddress": null,
      "logs": [
        {
          "address": "0x326C977E6efc84E512bB9C30f76E30c160eD06FB",
          "topics": [
            "0xddf252ad1be2c89b69c2b068fc378daa952ba7f163c4a11628f55a4df523b3ef",
            "0x0000000000000000000000006e22a78e8be91f94b673e4bfd0b1f2a620c99ed9",
            "0x0000000000000000000000007a1bac17ccc5b313516c5e16fb24f7659aa5ebed"
          ],
          "data": "0x00000000000000000000000000000000000000000000000029a2241af62c0000",
          "blockHash": "0x60de1ef9e4a814781814bd9f9a865a3f7c8130cb09059bac7a1812a062f3a73f",
          "blockNumber": "0x2c124f8",
          "transactionHash": "0xddac7cfb127f3a4df46fbb96d221d8c43f2f0b14df6e7bcfb780c80b8b1956e3",
          "transactionIndex": "0x2",
          "logIndex": "0x2",
          "removed": false
        },
        {
          "address": "0x326C977E6efc84E512bB9C30f76E30c160eD06FB",
          "topics": [
            "0xe19260aff97b920c7df27010903aeb9c8d2be5d310a2c67824cf3f15396e4c16",
            "0x0000000000000000000000006e22a78e8be91f94b673e4bfd0b1f2a620c99ed9",
            "0x0000000000000000000000007a1bac17ccc5b313516c5e16fb24f7659aa5ebed"
          ],
          "data": "0x00000000000000000000000000000000000000000000000029a2241af62c0000000000000000000000000000000000000000000000000000000000000000004000000000000000000000000000000000000000000000000000000000000000200000000000000000000000000000000000000000000000000000000000001c5c",
          "blockHash": "0x60de1ef9e4a814781814bd9f9a865a3f7c8130cb09059bac7a1812a062f3a73f",
          "blockNumber": "0x2c124f8",
          "transactionHash": "0xddac7cfb127f3a4df46fbb96d221d8c43f2f0b14df6e7bcfb780c80b8b1956e3",
          "transactionIndex": "0x2",
          "logIndex": "0x3",
          "removed": false
        },
        {
          "address": "0x7a1BaC17Ccc5b313516C5E16fb24f7659aA5ebed",
          "topics": [
            "0xd39ec07f4e209f627a4c427971473820dc129761ba28de8906bd56f57101d4f8",
            "0x0000000000000000000000000000000000000000000000000000000000001c5c"
          ],
          "data": "0x0000000000000000000000000000000000000000000000000de0b6b3a76400000000000000000000000000000000000000000000000000003782dace9d900000",
          "blockHash": "0x60de1ef9e4a814781814bd9f9a865a3f7c8130cb09059bac7a1812a062f3a73f",
          "blockNumber": "0x2c124f8",
          "transactionHash": "0xddac7cfb127f3a4df46fbb96d221d8c43f2f0b14df6e7bcfb780c80b8b1956e3",
          "transactionIndex": "0x2",
          "logIndex": "0x4",
          "removed": false
        },
        {
          "address": "0x0000000000000000000000000000000000001010",
          "topics": [
            "0x4dfe1bbbcf077ddc3e01291eea2d5c70c2b422b415d95645b9adcfd678cb1d63",
            "0x0000000000000000000000000000000000000000000000000000000000001010",
            "0x0000000000000000000000006e22a78e8be91f94b673e4bfd0b1f2a620c99ed9",
            "0x0000000000000000000000005082f249cdb2f2c1ee035e4f423c46ea2dab3ab1"
          ],
          "data": "0x000000000000000000000000000000000000000000000000000651640bfd68000000000000000000000000000000000000000000000000005b01ac6852e3748100000000000000000000000000000000000000000000068e6c303f27e1fbdec20000000000000000000000000000000000000000000000005afb5b0446e60c8100000000000000000000000000000000000000000000068e6c36908bedf946c2",
          "blockHash": "0x60de1ef9e4a814781814bd9f9a865a3f7c8130cb09059bac7a1812a062f3a73f",
          "blockNumber": "0x2c124f8",
          "transactionHash": "0xddac7cfb127f3a4df46fbb96d221d8c43f2f0b14df6e7bcfb780c80b8b1956e3",
          "transactionIndex": "0x2",
          "logIndex": "0x5",
          "removed": false
        }
      ],
      "status": "0x1",
      "logsBloom": "0x00000000000000040000000000000010040000000000000200000000020000000000000002000000000000000000000020008000000000000000080000000000000000000000000000000008000000800000000100000000000120000000000000000080000000000000000000000000000000000000000080020010000000000000004000000000000000000000000010000020000000000000000400080000204000000000000000000000000000000000000000000000000400000000004000000002000000008001000000000000000000000000000000100000000000000800000000000080001000000000000000000000000000000000000000100000",
      "type": "0x2",
      "effectiveGasPrice": "0x6fc23ac10"
    }
  ],
  "libraries": [],
  "pending": [],
  "returns": {},
  "timestamp": 1708598098,
  "chain": 80001,
  "multi": false,
  "commit": "fcb659d"
}